:1000000000300020E904000035050000FD43000039
:1000100000000000000000000000000000000000E0
:100020000000000000000000000000003D6400002F
:10003000000000000000000051650000A165000004
:1000400031050000310500003105000031050000D8
:1000500031050000310500003105000031050000C8
:10006000490500004D050000510500005505000040
:10007000590500005D05000029E9000011F10000AC
:1000800031050000B1F70000D5F70000F9F70000D6
:10009000650500003105000065F40000C9F40000AA
:1000A0004598000069980000310500003105000006
:1000B0003105000031050000690500006D050000F4
:10040000FFFFFFFFFFFFFFFFFFFFFFFFFFFFFEFFFD
:1004100010B5064C2378002B07D1054B002B02D0DA
:10042000044800E000BF0123237010BDE8F0FF1F67
:1004300000000000B42A010008B5084B002B03D0CF
:100440000748084900E000BF07480368002B03D0B5
:10045000064B002B00D0984708BDC04600000000A6
:10046000B42A0100ECF0FF1FE4F0FF1F00000000C1
:10047000164B002B00D1144B9D46402292029A1A33
:10048000924600218B460F461348144A121A10F068
:1004900073FE0F4B002B00D098470E4B002B00D063
:1004A00098470020002104000D000D48002802D0CC
:1004B0000C4800E000BF10F017FE2000290003F0F8
:1004C00067FF10F0FBFDC046000008000030002070
:1004D0000000000000000000E8F0FF1F581D002091
:1004E000000000000000000072B60A480A490160DE
:1004F0000A6882F30888094880470949094A0A4B73
:100500009B1A03DD043BC858D050FBDC62B6074899
:100510008047000008ED00E0000000007D8400003E
:10052000DC2A010000F0FF1FE8F0FF1F710400004B
:100530000F4800470F4800470F4800470F48004743
:100540000F4800470F4800470F4800470F48004733
:100550000F4800470F4800470F4800470F48004723
:100560000F4800470F4800470F4800470E48004714
:100570003105000035050000FD4300003D6400002A
:1005800051650000A16500004D7400006D7400000D
:10059000757E0000B57E00001D83000041830000D1
:1005A00065830000C97D00008D740000002934D0EF
:1005B0000123002210B488422CD301242407A14235
:1005C00004D2814202D209011B01F8E7E400A142F2
:1005D00004D2814202D249005B00F8E7884201D38D
:1005E000401A1A434C08A04202D3001B5C08224365
:1005F0008C08A04202D3001B9C082243CC08A042D6
:1006000002D3001BDC082243002803D01B0901D0C1
:100610000909E3E7101C10BC7047002801D0002036
:10062000C04307B4024802A14018029003BDC0466F
:10063000D90000000029F0D003B5FFF7B9FF0EBCC8
:100640004243891A1847C046002941D010B4041CFF
:100650004C40A44601230022002900D5494200282D
:1006600000D5404288422CD301242407A14204D261
:10067000814202D209011B01F8E7E400A14204D241
:10068000814202D249005B00F8E7884201D3401A58
:100690001A434C08A04202D3001B5C0822438C087A
:1006A000A04202D3001B9C082243CC08A04202D3E4
:1006B000001BDC082243002803D01B0901D00909D4
:1006C000E3E7101C6446002C00D5404210BC704784
:1006D000002806D003DB0020C043400801E0802052
:1006E000000607B4024802A14018029003BDC046AC
:1006F000190000000029EBD003B5FFF7A7FF0EBCDF
:100700004243891A1847C0467047C0468446101CA9
:1007100062468C46191C634600E0C0461FB501F0D6
:10072000C7FE002801D40021C8421FBD10B501F04A
:10073000F7FD4042013010BD10B501F0B9FE0028B0
:1007400001DB002010BD012010BDC04610B501F036
:10075000AFFE002801DD002010BD012010BDC04605
:1007600010B501F027FE002801DC002010BD01209B
:1007700010BDC04610B501F01DFE002801DA0020B2
:1007800010BD012010BDC0468446081C6146FFE72D
:100790001FB500F0C7FB002801D40021C8421FBDCF
:1007A00010B500F04DFB4042013010BD10B500F017
:1007B000B9FB002801DB002010BD012010BDC046A0
:1007C00010B500F0AFFB002801DD002010BD0120B6
:1007D00010BDC04610B500F05DFB002801DC002014
:1007E00010BD012010BDC04610B500F053FB00281D
:1007F00001DA002010BD012010BDC046002B11D130
:10080000002A0FD1002900D1002802D00021C943BD
:10081000081C07B4024802A14018029003BDC0465C
:10082000E9FEFFFF03B4684601B5029800F05CF8EA
:10083000019B9E4602B00CBC7047C0469C46030418
:10084000F0B51B0C17043F0C150C1E1C041C000CEF
:100850007E436B4347434543FB18300C18188742CF
:1008600002D980235B02ED18030CED1863465C434C
:100870004A433604360CA118000480194919F0BD0A
:100880009E2110B5C905041CFFF7AEFF002803D157
:10089000201C00F033FE10BD9E21C905201C00F075
:1008A000B7FC00F02BFE80231B06C018F3E7C04600
:1008B000F0B583B0161C1F1C0090019102F0A8FD3A
:1008C000041C0D1C221C2B1C301C391CFFF7B6FF0E
:1008D000009A019B121A8B410899201C0A604B60F8
:1008E000291C03B0F0BDC046F0B583B0141C1D1C1C
:1008F0000090019102F068FF221C2B1C061C0F1CAB
:10090000FFF79CFF009A019B121A8B410899301C3B
:100910000A604B60391C03B0F0BDC046F8B5430215
:100920004400C50F4E024800240E2A1C9B09000EED
:10093000C90FB6098D425BD0221A002A00DC89E07B
:1009400000281DD1002E00D075E0580704D00F22DA
:100950001A40042A00D004338021C90419402A1CFB
:1009600000293AD00134FF2C00D17FE09B015B0AC3
:100970005B02E4B2E405580AD20720431043F8BDF5
:10098000FF2CE2D08021C9040E431B2A00DD2DE19B
:10099000311C2020D140821A9640721E96410E438F
:1009A0009B1B5801D1D59B019F09381C02F012FDF9
:1009B000421F974094425BDC141B1F231B1B3A1CF5
:1009C0009F40611C3B1CCA405F1EBB411343002477
:1009D000BBE7131EB9D100230022DB08FF2C04D192
:1009E000002B43D08020C00303435B025B0ABFE7B8
:1009F000211A002940DD002823D0FF2CA5D080201B
:100A0000C00406431B2900DDEEE0301C2027C8404F
:100A1000791A8E40711E8E4106439B19590100D4EC
:100A200093E70134FF2C55D0714901221A400B4045
:100A30005B08134389E7013A002AB1D0FF2CA4D107
:100A400083E7002E00D180E701390029E5D0FF2C93
:100A5000D8D17AE7002A1BD1621CD2B2012A4BDD21
:100A60009F1B7A0123D5F71A0D1C9EE700237FE711
:100A70005F4BA41A3B4068E7002946D1611CC8B20D
:100A8000012829DDFF2924D0F3185B080C1C5CE742
:100A9000002C13D0FF2818D08024E40452422343B2
:100AA0001B2A4DDD0123F31A041C0D1C79E7002FCE
:100AB00000D07AE70023002200248EE7002B3BD0F1
:100AC000D243002AEFD0FF28EAD1331CFF240D1CAB
:100AD0003BE7FF24002380E7002C5CD1002B00D1F2
:100AE00080E0002E00D130E79B19580100D42CE79C
:100AF0003F4A0124134028E7002C15D1002B40D198
:100B0000002E63D0331C0D1C1FE7002C21D1002BBD
:100B100054D0C943002904D0FF284CD01B2958DDEC
:100B200001239B19041C79E7002B19D1002E48D012
:100B3000331C0D1CFF2408E7331C041C0D1C04E7A8
:100B40001C1C2025D440AA1A93405A1E93412343CB
:100B5000A9E7FF282FD08024E40449422343DDE79E
:100B6000FF24002E00D1F0E68022DB08D2031342DE
:100B700004D0F608164201D1331C0D1CDB00FF2403
:100B8000E3E6002E00D1E0E69A1B500100D420E7F6
:100B9000F31A0D1CD9E6002B0DD0FF24002E00D136
:100BA000D3E68022DB08D2031342E7D0F6081642D0
:100BB000E4D1331CE2E7331CFF24C6E6331C041CDB
:100BC000C3E6802300229B04FF2406E7231C0022A7
:100BD00003E71C1C2027CC40791A8B40591E8B41FF
:100BE00023439EE7331CB0E6012616E70126D7E62D
:100BF000FFFFFFFBF0B55F4656464D464446F0B456
:100C000046024500C00F85B00F1C760A2D0E8046A7
:100C100041D0FF2D26D08024240400212643F60055
:100C20007F3D89468B46F90F7C027800640A000EEE
:100C300000918A463CD0FF2834D080231B041C43FB
:100C40000023E4007F380193009F4346019A7B40D4
:100C500049469C4611430F2900D971E0764F89001F
:100C60007F58BF46002E3ED10822022391469B4664
:100C7000D9E75A46341CC24601920199022937D05D
:100C8000032900D1CFE0012900D0ABE053460B404F
:100C90000022002632E0002E19D1042101228946CB
:100CA0009346C0E7221C531E9A4102320192CBE7C1
:100CB00001270197002CC7D0201C02F08BFB431F9B
:100CC0009C4076235B420021181A0191BCE7301C3E
:100CD00002F080FB7625431F9E406D4200232D1AB3
:100CE00099469B469FE70C23032199468B469AE73A
:100CF000D446012367463B40FF2200267602D205F8
:100D0000700ADB071043184305B03CBC9046994677
:100D1000A246AB46F0BD80260023F603FF22EDE796
:100D200000220026EAE78020C00306423BD00442AE
:100D300039D1061C26437602760A009BFF22DDE7A6
:100D4000281A039076016401A64239D3361B1A2271
:100D500001230120311C5B007600002901DBB44235
:100D600001D8361B0343013A002AF3DC741EA64166
:100D7000341C1C43039A7F32002A27DD630704D00A
:100D80000F232340042B00D00434270103D52B4B21
:100D9000039A1C408032FE2A0BDD012361460B4082
:100DA000FF220026AAE706437602760A4346FF2280
:100DB000A4E7A40101236746660AD2B23B409DE73F
:100DC000039F1B22013F03970023C2E77E23039F5B
:100DD0005B42DB1B1B2B07DD012361460B4000221E
:100DE00000268BE7D446C5E7221CDA40039B9E33DE
:100DF0009C40231C5C1EA34113435A0704D00F22BE
:100E00001A40042A00D004335F0105D5012361464E
:100E10000B400122002671E79E0162460123134028
:100E2000760A00226AE78026F60326437602760ACF
:100E30005346FF2262E7C046B0240100FFFFFFF7E0
:100E40004A02430270B55C0A550A43004A001B0E71
:100E5000C60F120EC90FFF2B05D0FF2A08D00120A4
:100E600093420BD070BD0120002CFBD1FF2AF6D19C
:100E70000120002DF6D101209342F3D1AC42F1D1F3
:100E80008E4205D0002BEDD1201C441EA041E9E785
:100E90000020E7E74A024302F0B55C0A550A430026
:100EA0004A001B0EC60F120EC90FFF2B31D0FF2AAE
:100EB00034D0002B16D1604260418446002A14D001
:100EC000002820D18E4217D1934215DC04DBAC42BE
:100ED00012D80020AC4212D270427041404201232D
:100EE00018430CE0002AEDD194466F426F416046F2
:100EF000002805D1002FE5D0704201231843F0BD32
:100F00000020002FFBD148424841404201231843B2
:100F1000F5E7002CCBD002204042F0E7002DC8D0EE
:100F2000F9E7C0464A024302F0B55C0A550A43009D
:100F30004A001B0EC60F120EC90FFF2B27D0FF2A27
:100F400029D0002B10D0002A15D194466F426F4152
:100F50006046002815D00020002F04D148424841A7
:100F6000404201231843F0BD604260418446002A9C
:100F7000ECD00028F2D18E4211D0704201231843E8
:100F8000F1E7002FF7D0704201231843EBE702206E
:100F9000002CE8D1D3E70220002DE4D1D1E7934221
:100FA000EBDC04DBAC42E8D80020AC42DBD2704280
:100FB0007041404201231843D5E7C046F0B55F4673
:100FC00056464D464446F0B44402460083B00F1CDA
:100FD000640A360EC50F002E41D0FF2E22D080238A
:100FE0001B0400201C43E4007F3E82468046391CDF
:100FF0004B007F02C90F7F0A1B0E8B463BD0FF2B95
:1010000034D0802212041743FF007F3B00215A4650
:101010006A40019252460A430F2A63D87A489200E6
:1010200082589746002C3FD10822022392469846C8
:10103000DDE70195404602282AD1019A0125154095
:10104000FF2300246402DB05600AED0718432843F0
:1010500003B03CBC90469946A246AB46F0BD002C7E
:1010600027D10420012282469046C0E7391C4A1E3F
:1010700091410231CBE70121002FC8D0381C02F08A
:10108000A9F9431F9F4076235B421B1A0021BEE74C
:10109000032800D1AEE001284FD10198424610400C
:1010A000C5B200230024CDE70C2303209A468046D6
:1010B0009DE7201C02F08EF97626431F9C40764265
:1010C0000023361A9A46984691E780240025E403C7
:1010D000FF23B7E75B463C1C01938846AAE73C1C0C
:1010E0008846A7E7250C24043A0C240C3F04F61884
:1010F0003F0C211C231C794353436F435543FB187A
:101100000A0C9B18B1469F4202D980225202AD18A8
:1011100009041A04090C521894011B0C611E8C411D
:10112000920EED181443AD012C43230105D5012285
:1011300063080120144081441C434B467F33002B3D
:101140002DDD600704D00F222240042A00D0043491
:10115000220103D52D4B1C404B468033FE2B17DD5F
:10116000019B01251D400024FF236BE78020C00365
:10117000044208D0074206D1041C3C436402640ABE
:101180005D46FF235EE704436402640AFF2359E7D8
:101190000198A4010125640ADBB2054052E77E23D1
:1011A0005B424A469B1A1B2B05DD019B01251D4016
:1011B0000024002346E7221CDA404B469E339C4025
:1011C000231C5C1EA3411343580704D00F221A406E
:1011D000042A00D004335A0105D5019B01251D4086
:1011E000002401232EE701989C010125640A054093
:1011F000002327E78027FF03019B3C43640201256E
:101200001D40640AFF231DE7F0240100FFFFFFF7E4
:10121000F8B5C20F430244004D024800240E161CCC
:101220009B09000EC90FAD09FF2800D183E00127FB
:1012300079408A425CD0221A002A00DC8EE0002825
:101240001ED1002D00D07AE0580704D00F221A409A
:10125000042A00D004338021C904012219403240FD
:1012600000293AD00134FF2C00D183E09B015B0AB6
:101270005B02E4B2E405580AD20720431043F8BDEC
:10128000FF2CE1D08021C9040D431B2A00DD31E190
:10129000291C2020D140821A95406A1E95410D4399
:1012A0005B1B5801D0D59B019F09381C02F092F8B6
:1012B000421F974094425FDC141B1F231B1B3A1CE8
:1012C0009F40611C3B1CCA405F1EBB41134300246E
:1012D000BAE7131EB8D100230022DB08FF2C04D18B
:1012E000002B47D08020C00303435B025B0ABFE7AB
:1012F000211A002944DD002827D0FF2CA4D080200B
:10130000C00405431B2900DDF2E0281C2027C8404B
:10131000791A8D40691E8D4105435B19590100D42E
:1013200092E70134FF2C59D0734901221A400B4037
:101330005B08134388E7002D00D07AE777E7013A8E
:10134000002AADD0FF2CA0D17EE7002D00D17BE795
:1013500001390029E1D0FF2CD4D175E7002A1BD137
:10136000621CD2B2012A4BDD5F1B7A0123D5EF1A32
:101370000E1C9AE700237BE75F4BA41A3B4063E710
:10138000002946D1611CC8B2012829DDFF2924D0DB
:10139000EB185B080C1C57E7002C13D0FF2818D063
:1013A0008024E404524223431B2A4DDD0123EB1A1F
:1013B000041C0E1C75E7002F00D076E700230022E6
:1013C00000248AE7002B3BD0D243002AEFD0FF282D
:1013D000EAD12B1CFF240E1C36E7FF2400237CE7F8
:1013E000002C5CD1002B00D180E0002D00D12BE738
:1013F0005B19580100D427E73F4A0124134023E733
:10140000002C15D1002B40D1002D63D02B1C0E1CBD
:101410001AE7002C21D1002B54D0C943002904D055
:10142000FF284CD01B2958DD01235B19041C75E7EC
:10143000002B19D1002D48D02B1C0E1CFF2403E7D4
:101440002B1C041C0E1CFFE61C1C2026D440B21AC8
:1014500093405A1E93412343A9E7FF282FD08024AD
:10146000E40449422343DDE7FF24002D00D1EBE6ED
:101470008022DB08D203134204D0ED08154201D1CB
:101480002B1C0E1CDB00FF24DEE6002D00D1DBE66A
:101490005A1B500100D41CE7EB1A0E1CD4E6002B9B
:1014A0000DD0FF24002D00D1CEE68022DB08D20330
:1014B0001342E7D0ED081542E4D12B1CE2E72B1CC8
:1014C000FF24C1E62B1C041CBEE6802300229B04E3
:1014D000FF2402E7231C0022FFE61C1C2027CC402F
:1014E000791A8B40591E8B4123439EE72B1CABE698
:1014F000012512E70125D3E6FFFFFFFB4302590A4E
:101500004300C20F1B0E00207E2B0DDD9D2B0CDC3B
:10151000802000040143952B0ADC9620C31AD94091
:101520004842002A00D1081C7047034BD018FBE743
:10153000963B9940F4E7C046FFFFFF7F70B5041E5D
:101540003CD0C60F00D04442201C01F043FF9E2334
:10155000251C1B1A962B0CDC083884406402640A94
:10156000DBB2321C6402DB05600AD2071843104369
:1015700070BD992B0ADD0522121A211CD1400A1CCC
:10158000011C1B318D40691E8D411543052801DD6D
:10159000421F9540164C2C406A0704D00F2215407C
:1015A000042D00D0043461010CD59F23181AFF28A4
:1015B0001AD0A401640AC3B2321CD3E7002200236C
:1015C0000024CFE7E408FF2B04D06402640ADBB2F6
:1015D000321CC7E7002C04D08020C00304436402FF
:1015E000640A321CFF23BDE7321CFF230024B9E745
:1015F000FFFFFFFB10B5041E33D001F0EBFE9E236E
:101600001B1A962B09DC083884406402640ADBB29A
:101610006402DB05600A184310BD992B0ADD052220
:10162000121A211CD1400A1C011C1B318C40611E66
:101630008C411443052801DD421F9440144A224086
:10164000610704D00F210C40042C00D0043251015A
:101650000AD59F23181AFF2816D09401640AC3B232
:10166000D6E700230024D3E7D208FF2B03D054028F
:10167000640ADBB2CCE7002A06D08024E4031443DA
:101680006402640AFF23C3E7FF230024C0E7C046C7
:10169000FFFFFFFBF8B55F46564644464D46F0B4A3
:1016A0000C034D00CE0F610A440F2143C400180300
:1016B00080465800400D8246D80F84464046400A76
:1016C000530F0343D0006D0D371C834652466645C9
:1016D00000D1A4E0AF1A002F00DC09E1002A3BD1C1
:1016E000184300D0EAE0630700D187E00F232340CE
:1016F000042B00D182E0221DA242A4416442802337
:1017000009191B040B40371C141C002B00D17CE072
:10171000CE4B01359D4200D105E1CD4BE408194087
:101720004807490204430B0B002000211B031A0B3E
:101730000B0D6D051B0513436A08C64DFF071D40C1
:1017400015436D006D08291C3943201C3CBC904694
:101750009946A246AB46F8BDBC488542C3D080201E
:1017600000040343382F00DDF0E01F2F00DD24E1EB
:101770002020C01B1A1C814682405846F840024374
:10178000944658464A469040421E9041FB4062466D
:1017900002431F1CA21A9442A4416442C91B091BA4
:1017A000141C0B029FD549024F0A002F00D1C8E03C
:1017B000381C01F00FFE021C083A1F2A00DDB5E0BC
:1017C0002821091A201C9740C8400743944095429D
:1017D00000DDB2E0551B691C1F2900DDDCE01F2283
:1017E000551B3B1C221CAB40CA40AC40651EAC41A3
:1017F0001343CF401C43391C002574E780231B048E
:101800000B40371C002B00D082E7904B4807E408C0
:101810000443C9089D4248D009030B0B84E7AA1A68
:101820009446002A00DC98E05046002852D08748B1
:10183000854200D157E78020000403436246382ADE
:1018400000DDFCE01F2A00DD4AE120226046101A7C
:101850001A1C82408246914658466246D0404A460B
:1018600002439046584652469040421E904142469E
:1018700002436046C3401219A242A441644259186F
:101880000919141C080200D42DE7704B01359D4244
:1018900000D122E16E4B60081940012323401C1C3B
:1018A0000443CB071C4349081DE7231C0B433AD0D4
:1018B00080231B030B431B031B0B35E7013F002F4A
:1018C00065D15846221A9442A4416442C91A091BA0
:1018D000141C66E75846184300D104E7012252421F
:1018E00094446046002800D0C5E058460219C3E77A
:1018F000002F73D1681C4005400D012800DCDEE09C
:101900005A46A21A9442BF41C81A7F42C71B3802E6
:1019100000D489E05A46141BA3459241591A5242F9
:101920008F1A664641E700230024FDE6271C28386D
:1019300087400024954200DC4CE74549AD1A394008
:10194000D1E6201C01F046FD203034E75A461A4308
:10195000531E9A41D2B200271CE7002A00D0DCE0D7
:10196000681C4205520D012A00DC8DE0374DA8426B
:1019700000D1F3E05D462A19A242A44164425918FD
:101980000919CC07520814434908051CABE62F4837
:10199000854200D0E6E6A6E62B1C1F3B3A1CDA4047
:1019A000131C20296CD03F22551BAF403C43601EC6
:1019B00084411C430021002595E6381C20381A1C60
:1019C000C240101C202F5DD04022D71BBB405A467E
:1019D0001A43531E9A4102430027DBE6002D3BD0F9
:1019E0001A4DAA4500D193E080252D047F4229435A
:1019F000382F00DDACE01F2F00DD29E12025ED1B95
:101A0000081C261CA840FE40AC400643651EAC41A5
:101A10003443F9405D462C1BA34592415B1A524268
:101A2000991A55466646BCE6131C3B43141C002B12
:101A300000D0BAE60027002100250024E5E65A463A
:101A40001A43531E9A41D2B2002314E7FF07000045
:101A5000FFFF7FFFFFFF0F800D1C254358D0FF4382
:101A6000002F51D1041BA3459241591A5242891AA1
:101A70005546664695E69648854200D0DEE632E653
:101A8000002793E70023A2E7081C2043002D00D085
:101A9000C4E0002800D1F7E05846184300D122E600
:101AA00058460219A242A441644259180919141C4B
:101AB0000A0200D417E6874B0125194013E6081CDB
:101AC0002043002D39D1002871D15946194303D044
:101AD000191C5C46664606E600270021002494E6B1
:101AE000604620381A1CC24060469146202800D12A
:101AF000ACE04022121A93405A461A43531E9A41B0
:101B00004B461A430023B6E6714DAA4500D06FE755
:101B1000191C5C4655466646E5E5002D22D10D1C94
:101B2000254377D0D543002D71D15C445C4592416B
:101B30005918524289185546A4E600284DD15946F5
:101B4000194300D194E0191C5C466646604DCAE515
:101B50000C43611E8C41E4B200215BE7051C0021AF
:101B6000002452E65A4DAA4554D055428022100412
:101B70000143382D00DD81E01F2D00DD92E02022A1
:101B8000501B0A1C84468240201CE84002439046B9
:101B900062469440601E844142461443E9405C44DE
:101BA0005C459241CB185242991855466AE6584610
:101BB000184300D197E55846271ABC429241C81AEB
:101BC0005242801A020266D55846041BA345924130
:101BD000591A5242891A664685E55846184333D049
:101BE0004807E40804438020C9080003014208D0E4
:101BF000DD08054205D15946CA085C071443291C73
:101C00006646630FC9001943E400314D6BE5304A65
:101C10009245AED1191C5C46554664E5002836D085
:101C20005846184310D080254807E408C9082D03FA
:101C300004432942E5D0D8082842E2D15D46EA08AB
:101C40005C071443011CDCE7214D4CE5002353E7FE
:101C50003D1C203D0A1CEA40151C202F34D0402694
:101C6000F71BB9400C43611E8C412C430021D1E687
:101C700080210027C903164D0024C6E50C43611ED0
:101C80008C41E4B200218AE7191C5C462BE5191C43
:101C90005C460F4D27E5031C3B4300D11CE7011CAC
:101CA0003C1C20E52020404240190A1CC2409046BE
:101CB000202D0BD04020451BA9400C43611E8C41B8
:101CC00045462C4300216AE70021CBE70021F4E7D9
:101CD000FF070000FFFF7FFFF0B5564644465F4612
:101CE0004D46F0B41F1C0B031B0B98464B0087B0EE
:101CF000041C81465B0DC80F161C9A460090002BF1
:101D000051D06A4B9A4531D08022414652030A4352
:101D1000630FD2001A43664B90460025E2009146BD
:101D20009A44002402953B031B0B9B46FD0F7B004E
:101D3000311C5B0D019560D05C4A934254D08021E8
:101D4000584649030143720FC9001143584A8B4654
:101D50009B18F1000020009A04436A4003920F2C64
:101D600000D9ADE0534EA4003459A7464046044381
:101D70006ED1002102250824884689460295D2E7C3
:101D8000009C0298C34649460194022864D0032867
:101D900000D1ABE2012800D038E2019A00240240D1
:101DA0000025A14660E0434623434AD04046002830
:101DB00000D1C0E101F00EFB031E272B00DDB3E1D3
:101DC00028210D1A211C083B4246E9409A400D1C6F
:101DD0001543221C9A40A8469146374B00251B1AF2
:101DE0009A46002402959EE75A4616430320002E89
:101DF000B1D1B34600210220ADE75A4632431BD091
:101E00005B46002B00D18AE1584601F0E3FA27280F
:101E100000DD7DE12822171A011C321C08395B46BF
:101E2000FA408B40171C1F43331C8B40BB46191CC8
:101E3000214B1B1A00208EE70027BB460021012002
:101E400089E70020012504248046814602956AE73F
:101E500003250C24029566E7019C0394039D01224F
:101E60002A400024114DA146002000212403260B06
:101E70000C0D2405114B34432D0523402B435B00EF
:101E80005B08D207191C4846114307B03CBC90467A
:101E90009946A246AB46F0BD002280242403914619
:101EA000024DE1E700240025A146DDE7FF07000021
:101EB00001FCFFFF302501000DFCFFFFFFFF0F803D
:101EC0005546ED1A0495D84500D953E100D14EE1AD
:101ED000049C0025013C4E4604944746A9465846BA
:101EE00003020C0E1C430902250C23041B0C009159
:101EF000381C291C0193FEF759FB01998346414385
:101F0000381C8A46291CFEF795FB330C090419433B
:101F10008A450CD95B460919013B8C4200D947E13F
:101F20008A4500D844E1022252429344091953469B
:101F3000CB1A181C291C9846FEF738FB071C019881
:101F4000291C784382464046FEF774FB36040B0496
:101F5000360C33439A4509D91B197A1E9C4200D985
:101F600024E19A4500D821E1023F1B195E46320464
:101F70001743380CBB46009E009F51463F0C32046D
:101F80005B1A5946BA46120C0F043F0C9046514654
:101F90007A434F434146414356467043CF19160C8E
:101FA000BE19B14202D980277F02C019310C120438
:101FB0003604120C4018B618834200D2C4E000D197
:101FC000BEE0191A4846861BB145BF417F42CF1B70
:101FD000A74200D113E1291C381CFEF7E7FA01994A
:101FE00002904143381C8946291CFEF723FB330C21
:101FF0000904194389450CD9029B0919013B8C42FC
:1020000000D9FFE0894500D8FCE0029F0919023F92
:1020100002974F46CF1B381C291C0597FEF7C6FABE
:10202000071C0198291C784381460598FEF702FB9E
:1020300036040904360C0E43B14509D936197B1E06
:10204000B44200D9E0E0B14500D8DDE0023F3619E6
:10205000029D4946761A290439430B0457460A0C57
:102060001B0C40464546584355437B437A43EB1887
:10207000070CDB199D4202D980256D0252191D0CF7
:1020800000041B04000C52191B18964235D300D1D2
:10209000FCE001231943049E994FF519002D00DC43
:1020A000A1E0480709D00F230B40042B05D00B1DDE
:1020B0008B42894149428B44191C5A46D20107D5AB
:1020C000904B5C46049E80271C40FF00A346F519F8
:1020D0008D4B9D427ADD039C0122224000248B4DD2
:1020E000A146C1E680242403474627424CD13C4305
:1020F0002403240B009A854DB6E63619481EB442D7
:102100005ED9011C9642C4D1009E9E42C1D1C2E755
:10211000031C283B311C99408B46002188E6301C6B
:1021200001F058F9203072E6283B211C994000222A
:102130008846914651E6201C01F04CF920303BE6E0
:102140000021B14500D33DE7009F5A46B944B94547
:10215000BF417F423F19FB18013A9C421ED2984270
:1021600000D97EE000D1B5E0191A93462AE78945E7
:1021700000D8ADE64846464642467708D3074608AB
:10218000C0071E438146AAE65846204212D10443A6
:1021900024032A1C240B89465C4D65E6A342E3D147
:1021A000009F4F45DBD9211A93460BE7171CDDE64C
:1021B0009B46BCE63C432403240B009A534D53E654
:1021C000B24259D800D18AE0011C62E75F46C908D3
:1021D0007B07039E0B437C026D0501229946240B6D
:1021E0006D0D324040E64A4B049FDB1B382B10DD5F
:1021F000039C0122224000240025A14634E601214F
:10220000494248E7029304E71F1C21E7019C03941D
:1022100041E71F2B40DC3F48049F0C1C3A185846EE
:102220009140DC40904020430A1C511E8A41011C11
:1022300011435A46DA40131C480709D00F220A40BE
:10224000042A05D00A1D8A42894149425B18111CA3
:102250001A0234D5039C0122224000240125A14604
:1022600002E6009F02214942B9448B44B9458941A5
:1022700049420919CB18A4E6009D881E6900A942AD
:10228000AD416D422C19361900913AE7002B00D070
:1022900033E70024009437E71F4A049C5D46121B75
:1022A000D5402A1C202B1FD01C4E5F46A3199F40EF
:1022B0003B1C19434B1E994111430023BCE75A07AD
:1022C000C9080A43039F91465B0201221C0B3A4056
:1022D0000025C9E54E45C4D89346002172E6009F0B
:1022E0009F42C9D3011C0FE70023E2E780242403A7
:1022F0005F463C432403240B019A8946034DB3E512
:10230000FF030000FFFFFFFEFE070000FF070000C5
:1023100002FCFFFF1E040000E2FBFFFF3E04000082
:10232000F0B55F4656464D464446F0B40D1C041CBD
:102330008046E80F814618030F03000B3F0B83B064
:1023400084461B48009749005E00DF0F490D924606
:10235000760DBB4681420CD01548864210D0012034
:10236000B14215D003B03CBC90469946A246AB465C
:10237000F0BD009F01202743F4D10D488642EED1E5
:10238000604602430120002AECD10120B142E9D18C
:10239000009B6345E6D1D045E4D1D94506D000295C
:1023A000E0D11C43201C441EA041DBE70020D9E7FC
:1023B000FF070000F0B55F4656464D464446F0B470
:1023C000CD0FDE0FAC461D032D0BB146374E0F036C
:1023D0004C00AB465D0080463F0B640D92466D0D90
:1023E000B44232D0314EB54235D0002C0ED13843F4
:1023F00041424141081C002D0BD0002919D1CC4588
:102400002DD0654668420123184318E0002DF6D10F
:10241000281C59460A4353425341002806D1002B39
:10242000EDD0634658420123184308E00020002BFA
:1024300005D14A46504250414042012318433CBC1A
:1024400090469946A246AB46F0BD3E1C0643C9D015
:1024500002204042F3E75E461643C6D0F8E7AC429E
:1024600007DC0BDA614648424841404201231843E9
:10247000E5E76646704201231843E0E75F450AD866
:102480000ED000205F45DAD265466842684140427E
:1024900001231843D3E76246504201231843CEE795
:1024A000D045F8D80020D045EED3C8E7FF0700009C
:1024B000F0B556464D4644465F46F0B40D1C83B019
:1024C000041C0190E80F814618030F03000B3F0B1B
:1024D00084463548009749005E00DF0F490D92465B
:1024E000760DB846814234D02F48864236D0002936
:1024F00018D0002E1FD1341C67463A435342534133
:10250000002C1FD00020002B05D1424650425041E4
:1025100040420123184303B03CBC90469946A24672
:10252000AB46F0BD0098044360426041041C002E9D
:10253000E2D00028E9D1C14515D04F4678420123A9
:102540001843E8E7002BF6D04B46584201231843C6
:10255000E1E7009F02202743DDD1C5E7674602205F
:102560001743D8D1C3E7B14204DD4A4650420123A4
:102570001843D0E7B14207DB00986045E4D80AD0A1
:10258000009F00206745C6D24F46784278414042BE
:1025900001231843BFE7019A5245D5D8019A00207C
:1025A0005245F1D3B7E7C046FF070000F0B55646E5
:1025B00044465F464D46F0B41F1C0B031B0B9A4666
:1025C0004B0087B0041C80465B0DC80F161C02939D
:1025D0008146002B68D0694B0299994232D0802203
:1025E000534652031A43D200630F1A439246644A79
:1025F000E000891880460291002400253B031B0B54
:102600009B467800FB0F321C400D039300D175E010
:102610005A4B984269D08022594652030A43730F9D
:10262000D2001A43564B9346C018F2000023039978
:102630004E4671401C430F2C00D9A9E0514EA40016
:102640003459A74653461C4300D087E00025AA46CC
:10265000A84608240225D1E74946022D6CD0032D57
:1026600000D117E2012D00D058E10D40EDB2002459
:10267000A9460023A0460020002125030A0D1C05C1
:102680002D0B1205404B2A43134023435B004C465D
:102690005B08E207191C4046114307B03CBC90465A
:1026A0009946A246AB46F0BD5346234350D053460D
:1026B000002B00D184E1504600F08CFE031E272B36
:1026C00000DD76E128210D1A211C083B5246E94025
:1026D0009A400D1C1543221C9A40AA4690462B4B4B
:1026E00000241B1A0293002588E75B461E43032340
:1026F000002E9CD1B3460022022398E75B46334369
:1027000021D05846002800D14EE100F063FE272872
:1027100000DD42E128210F1A021C311C083A5B46F9
:10272000F94093400F1C1F43331C9340BB461A1CB7
:10273000164B181A00237AE701230B400024994610
:10274000A0460E4B97E70027BB46002201236EE709
:10275000002104248A46884601254FE70C240325DE
:102760004CE700258024A9462403A846034B82E7B2
:10277000DA46904603991D1C6FE7C046FF0700002C
:1027800001FCFFFF70250100FFFF0F800DFCFFFF24
:10279000029F160C381804904046070C0004000CE9
:1027A0001204120C031C5343041C3D1C7443554378
:1027B00098463B1C73436419A44644460293230C79
:1027C00063449D4204D9029D802464022D19029520
:1027D0001D0C039545462C041B04240C1C19059460
:1027E0005C46230C051C58432404240C8446381CE6
:1027F000604365435F438146CC44280C6044BB463C
:10280000814502D980277F02BB442D04070C2D0C83
:10281000000440195546BC462F04E3448446280C66
:102820003D0C2F1C5743B8462F1C77434243B946F3
:1028300047463F0C9144BA46D14446434A4502D9E3
:1028400080225202B6184F463A0CB6183A04474650
:102850003F043F0CB8462F1C67435D434443584335
:1028600065190190380C2D184244B846AC4204D981
:10287000019880235B02C0180190039C029F201CDA
:102880006044C0196045A44147466442A4462B04F5
:102890003C049946240C4C44A046D8448018C246B7
:1028A000E24490429241574652429146F219E24523
:1028B000BF417F424B46BC46D845BF41D4187F42FA
:1028C00063461F432D0C7F19B24292414C45AD41E6
:1028D00052426D421543019E7D19AB19E20D5B0218
:1028E000059F134342023A439A46531E9A41C30D31
:1028F000101C18436402204380465046C0010DD589
:10290000454601225646049C6B082A401A43F307A9
:1029100001341A43760804949046B246049E634FED
:10292000F319002B61DD404640070BD00F224446CF
:102930002240042A06D042460432424580414042A9
:10294000824490465546ED0107D5594B5646049FA3
:1029500080201E40C000B2463B18564A934200DD1C
:10296000EAE644465546E2086807104301226C0235
:102970005B050A408046240B5B0D91467BE6DA46F8
:1029800090461D1C69E680242403574627421CD12B
:102990003C432403240B484B6DE6031C283B311CAD
:1029A00099408B460022C3E6301C00F013FD203016
:1029B000ADE6283B211C994000228A4690468EE6CF
:1029C000201C00F007FD203078E65846204207D151
:1029D000044303992403240B89469046364B4AE668
:1029E0003C432403240B344B45E6344B049E9B1B91
:1029F000382B06DD01230B4000249946A046002316
:102A000039E61F2B25DC049C2D4D464660195246A5
:102A100044468640DC4082405746301C2243DF401B
:102A2000441EA04102433B1C540709D00F20104014
:102A3000042805D0101D9042924152429B18021C5E
:102A40001D021AD501230B4000249946A0460123FC
:102A500011E61C48049C5546001BC540281C202B31
:102A600016D0194E5746A21997403A1C43461A43AE
:102A7000531E9A4102430023D6E758075B02D2084F
:102A80001C0B01230B401043994680460023F2E5BE
:102A90000022EBE78024240350460123044319401D
:102AA0002403240B8946044BE5E5C046FF030000E0
:102AB000FFFFFFFEFE070000FF07000002FCFFFF14
:102AC0001E040000E2FBFFFF3E040000F8B55F4675
:102AD000564644464D46F0B40C034D00CF0F610AF4
:102AE000440F2143C4001803DE0F8046B446464617
:102AF0005800760A530F3343D600D14A6D0DBA46BB
:102B0000400DB346904200D1F5E062460126724086
:102B10009446674500D1ABE02F1A002F00DC11E18D
:102B200000283ED15846184300D0F1E0600700D19C
:102B300097E00F232340042B00D122E1221DA24263
:102B4000A4416442802309191B04012750460B400D
:102B50000740141C002B00D179E0B94B01359D4290
:102B600000D10BE1B74BE408194048074902044380
:102B70000B0B002000211B031A0B0B0D6D051B0511
:102B800013436A08B04DFF071D4015436D006D08E3
:102B9000291C3943201C3CBC90469946A246AB46B2
:102BA000F8BDA7488542C1D0802000040343382FD8
:102BB00000DDFDE01F2F00DD31E12020C01B1A1CCD
:102BC0005E468240FE40324394465A468240101C84
:102BD000421E9041FB40624602431F1CA21A9442CF
:102BE000A4416442C91B091B141C0A029ED5490258
:102BF0004F0A002F00D1D6E0381C00F0EBFB021C7E
:102C0000083A1F2A00DDC3E02821231C091A974037
:102C1000CB401F439440954200DDC0E0551B691C2A
:102C20001F2900DDEAE01F22551B3B1C221CAB4084
:102C3000CA40AC40651EAC411343CF401C43391C15
:102C4000002573E780217E4D0027C90300247C4BBB
:102C50004807E4080443C9089D4250D009030B0B00
:102C600087E780231B04012752460B40174071E77A
:102C70002A1A9446002A00DCA1E0002854D07048AB
:102C8000854200D152E78020000403436046382883
:102C900000DD0EE11F2800DD57E162462020801A8A
:102CA0001E1C8640B1465E46D6404A4632435E46CA
:102CB00086409046301C421E904142460243604688
:102CC000C3401219A242A441644259180919141CA4
:102CD000080200D42AE75A4B01359D4200D131E168
:102CE000584B60081940012323401C1C0443CB07A8
:102CF0001C4349081AE71E4300D00AE705E7231CD6
:102D00000B433BD080231B030B431B031B0B30E700
:102D1000013F002F6DD15E46A21B9442A441644244
:102D2000C91A091B141C60E75846184300D1FDE678
:102D300001267642B4446046002800D0D0E05E46CA
:102D40003219BFE7002F00D080E0681C4005400D1D
:102D5000012800DCE8E05A46A21A9442BF41C81A92
:102D60007F42C71B3E0200D498E05846041BA3458F
:102D70009241591A52428F1AE2463AE70023002440
:102D8000F7E680231B04012756460B403740E1E657
:102D9000271C283887400024954200DC3EE729495B
:102DA000AD1A3940C2E6201C00F014FB203026E7A3
:102DB0005A461A43531E9A41D2B200270EE7002A00
:102DC00000D0DEE0681C4605760D012E00DC90E0A8
:102DD0001B4DA84200D1F5E05E463219A242A44143
:102DE000644259180919CC07520814434908051CB4
:102DF0009CE61348854200D0D9E697E62B1C1F3B82
:102E00003E1CDE40331C20296FD03F22551BAF40B3
:102E10003C43601E84411C430021002586E6381C8B
:102E200020381E1CC640301C202F60D04022D71BEB
:102E3000BB405A461A43531E9A4102430027CDE62F
:102E4000FF070000FFFF7FFFFFFF0F80002D37D03F
:102E5000B64DA84200D18FE080252D047F42294342
:102E6000382F00DDA8E01F2F00DD24E12025ED1B19
:102E70000E1CAE40B046261CFE404246AC401643F7
:102E8000651EAC413443F9405A46141BA345924198
:102E90005B1A5242991A051CE246A6E6131C3B43F4
:102EA000141C002B00D0A4E60027002100250024DC
:102EB000CDE65A461A43531E9A41D2B2002300E788
:102EC0000D1C254358D0FF43002F51D15A46141BE7
:102ED000A3459241591A5242891A051CE24684E6DA
:102EE0009248854200D0D1E620E6002790E70023F3
:102EF0009FE7081C2043002D00D0C2E0002800D12D
:102F0000EFE05846184300D110E658460219A24295
:102F1000A441644259180919141C0A0200D405E698
:102F2000834B0125194001E6081C2043002D38D1B0
:102F300000286FD15946194303D0191C5C46E2465C
:102F4000F4E500270021002481E6604620381A1CA1
:102F5000C2406646101C202E00D1AAE04022921BDF
:102F600093405A461A43531E9A4102430023A8E64F
:102F70006E4DA84200D073E7191C5C46051CE24662
:102F8000D4E5002D22D10D1C254376D0D543002D4C
:102F900070D15C445C459241591852428918051C15
:102FA00096E600284CD15946194300D14AE6191C2F
:102FB0005C46E2465D4DB9E50C43611E8C41E4B2CE
:102FC000002161E7051C0021002440E6574DA8427E
:102FD00053D05542802216043143382D7BDC1F2DFF
:102FE00000DD8CE02022561B0A1CB446B240261C91
:102FF000EE403243904662469440661EB4414246DB
:103000001443E9405C445C459241CB185242991804
:10301000051C5DE65846184300D187E55E46A71BB0
:10302000BC429241C81A5242801A060260D55846E4
:10303000041BA3459241591A5242891AE24675E58A
:103040005846184333D04807E40804438020C90891
:103050000003014208D0DD08054205D15946CA08DF
:103060005C071443291CE246630FC9001943E400BE
:103070002E4D5BE52D4A9042AFD1191C5C46051CD4
:1030800054E5002830D05846184310D08025480712
:10309000E408C9082D0304432942E5D0D808284292
:1030A000E2D15D46EA085C071443011CDCE71F4DD2
:1030B0003CE5002355E73D1C203D0E1CEE40351C31
:1030C000202F2ED04026F71BB9400C43611E8C41A7
:1030D0002C430021D8E60C43611E8C41E4B2002150
:1030E00090E7191C5C4621E5191C5C460F4D1DE557
:1030F000031C3B4300D124E7011C3C1C16E52026A1
:10310000764276190A1CF2409046202D0BD04026BC
:10311000751BA9400C43611E8C4145462C43002180
:1031200070E70021D1E70021F4E7C046FF07000067
:10313000FFFF7FFFF8B5041E31D0C70F00D0444217
:10314000201C00F047F9184D2D1A0A2819DD0B38FC
:10315000844024036D05240B6D0D3A1C00260020CD
:1031600000210B0D2403240B1B0523430F4C2D05BD
:103170001C402C4364006408D307211C301C1943F5
:10318000F8BD061C1536231CB3401E1C0B23181A51
:10319000C44024036D05240B6D0D3A1CDFE70022AB
:1031A000002500240026DAE71E040000FFFF0F8040
:1031B00010B5041E28D000F00DF9154A121A0A287D
:1031C00015DD0B38844024035205240B520D0023D7
:1031D000002000212403181C0B0D240B1B05234386
:1031E0000C4C12051C4014436400610810BD031C04
:1031F0001533211C99400B1C0B21081AC4402403D1
:103200005205240B520DE3E7002200240023DFE7E0
:103210001E040000FFFF0F8043001B0E5A1C4102DA
:10322000D2B270B54C0AC50F012A17DDE022920018
:103230006407090B9818002200231E0D221C340578
:103240000C431B49400540082140014349004908FF
:10325000ED070B1C2B43101C191C70BD002B15D146
:10326000002C1CD0201C00F0B5F80A281ADC0B2119
:10327000091A231CCB40191C031C15339C400D4B11
:103280000903181A4005090B400DD4E7002C03D0A0
:103290006407090B0848CEE707480021CBE7002068
:1032A0000021C8E7011C0B398C40211C0024E6E7F3
:1032B000FFFF0F8089030000FF070000F0B54B00FF
:1032C0000D03420F5B0D6D0A15435A1C5205CC0FBE
:1032D000C600520D012A27DD394FDA19FE2A1ADC01
:1032E000002A35DD8001ED00431E98412843760F0A
:1032F0003043430704D00F230340042B00D0043095
:103300008021C904014027D00132FF2A1DD083014A
:103310005B0AD1B201E0FF2100235802C905400A2F
:10332000E40708432043F0BD002B06D1354311D1FB
:103330000021002043025B0AEFE72E43EBD0802000
:10334000ED0080042843FF22D3E7FF210023E4E7B8
:1033500017320DDA05200022C008D1B2FF2AE9D1C8
:103360000028D9D08023DB0303435B025B0AD4E748
:103370008022144912041543C91A1F290DDC124A70
:10338000371C9B18281C9F4098403B1C5A1E934199
:103390001843CE4030430022ABE70C4F2A1CFF1AE3
:1033A000FA40171C202909D0094A98188540281C82
:1033B0003043461EB041384300229AE70020F7E729
:1033C00080FCFFFF9E03000082FCFFFF7E030000E5
:1033D000A2FCFFFF1C2101231B04984201D3000C17
:1033E00010391B0A984201D3000A08391B09984278
:1033F00001D30009043902A2105C40187047C0468E
:1034000004030202010101010000000000000000AD
:10341000F0B544465F4656464D46F0B41C1C85B098
:10342000002900DADBE00F1C0021061C8A46101C74
:10343000191C002C00DAC9E00196009089468046EC
:10344000002951D1B84200D871E0FFF7C3FF00282E
:1034500009D020234546311C1B1A85408740D9409E
:10346000A8460F4386404246150C13041B0C291C2A
:10347000381C9B46FDF79AF85B464343041C291C05
:10348000381C9946FDF7D6F8330C080418438145DB
:1034900009D94044631E804500D978E1814500D8B0
:1034A00075E1023C40444946411A8946081C291CE2
:1034B000FDF77CF85A464243071C291C48469346B0
:1034C000FDF7B8F836040904360C0E43B34507D9A6
:1034D00046447B1EB04502D8023FB34500D81F1CAE
:1034E00024042743002403E0B94211D90024002713
:1034F0005246381C211C002A03D03B1C0021584294
:10350000A14105B03CBC90469946A246AB46F0BDF1
:10351000081CFFF75FFF041E00D0BFE0B94500D2D2
:1035200042E1019D0099071C8D424741E0E70028D8
:1035300004D101200021FDF739F880464046FFF70D
:1035400049FF002852D1414644460B043C1B1B0C4A
:10355000A3460D0C00930124291C5846FDF726F8BC
:10356000009F81464743291C5846FDF763F8330CFA
:10357000090419438F4208D94B464144013B884511
:1035800002D88F4200D91AE19946C91B8B46081C04
:10359000291CFDF70BF8009B291C4343071C5846C8
:1035A0000093FDF747F83604009D0904360C0E43DE
:1035B000B54207D946447B1EB04502D8023FB5420A
:1035C00000D81F1C49460E04374391E75246D243A8
:1035D000031C0C1C924600215842A1412CE70027F5
:1035E00046428F41012149428A4620E720231B1A87
:1035F0004246351C82403C1CDD40DC4087402B1C91
:10360000150C3B43291C8640201C00931704904650
:10361000FCF7CCFF3F0C011C794381468B46201CF4
:10362000291CFDF707F8009C0904230C19438B455E
:103630000CD94B464144013B884500D9BDE08B4540
:1036400000D8BAE002225242914441445C460C1B2D
:10365000201C291C0194FCF7A9FF391C4143041CC0
:103660008B460198291CFCF7E5FF009A0904130416
:103670001B0C19438B4509D94144631E884500D969
:1036800097E08B4500D894E0023C41445B46CB1A5E
:1036900049469B460B041C4300975DE7009D202391
:1036A0001B1A4A468240DD401543391C009AD94016
:1036B00082408846311C0092D9403A1C82400B1C43
:1036C000134301932F0C2B041B0C391C404602930F
:1036D000FCF76CFF029A81464243391C40469346F0
:1036E000FCF7A8FF019A0904130C19438B450AD96A
:1036F0004B464919013B8D425DD88B455BD902236E
:103700005B42994449195A468A1A101C391C039283
:10371000FCF74CFF029B80464343391C03989B46B1
:10372000FCF788FF019A090413041B0C19438B450D
:103730000AD943464919013B8D4238D88B4536D9C1
:1037400002235B42984449195D464D1BAB464946EE
:10375000009D0F04424617432A04120C3B042D0C13
:103760001B0C380C111C594342436B436843D3185C
:103770000D0C5B198C469A4202D9802252028018A5
:103780001D0C401983450CD303D00024B0E61C1C4B
:1037900089E665462A041B04120C9B18A6409E422B
:1037A000F3D2013F0024A3E600240127A0E69846B7
:1037B000CAE71C1C6AE79946A5E7994646E7022234
:1037C000524291444144E0E6F0B55F4656464D46CC
:1037D0004446F0B40D1C85B0061C924698460290F3
:1037E000019103921F1C141C8346A946002B59D13A
:1037F000AA4269D9101CFFF7EDFD00280AD020234A
:103800001B1A311CD94085400B1C2B438640844039
:103810009946B346250C23041B0C291C48469846A0
:10382000FCF7C4FE4646071C4643291C4846FCF7E5
:1038300001FF5A460904130C19438E4209D909198C
:103840007B1E8C4200D957E18E4200D854E1023FE2
:103850000919891B8946081C291CFCF7A7FE434649
:103860004343061C291C48469846FCF7E3FE5A468B
:10387000130409041B0C1943884508D90919731E40
:103880008C4200D936E1023E884500D832E1380446
:1038900030430027391C05B03CBC90469946A246EF
:1038A000AB46F0BD019A934262D8181CFFF792FD17
:1038B000041E60D1019B9F4200D22CE1029F03991C
:1038C0008F4260410027E5E7002A04D10120002152
:1038D000FCF76CFE041C201CFFF77CFD002800D0C8
:1038E000B9E023042D1B1B0CA946260C9846012782
:1038F000311C4846FCF75AFE41464143051C8A46A6
:103900004846311CFCF796FE5A460804130C18432F
:10391000824507D900196B1E844202D8824500D91E
:1039200010E11D1C5346C31A181C311C9A46FCF7A3
:103930003DFE41464143814688465046311CFCF7D6
:1039400079FE5A46130409041B0C194388450BD908
:103950004B460919013B8C4200D9CFE0884500D87D
:10396000CCE002235B42994428044946084391E78E
:10397000002700208EE720231B1A4246574682402C
:10398000DF401743524682400192321CDA40291C24
:10399000D9408540131C2B4302933D0C3B041B0C68
:1039A0008846081C291C9A46FCF700FE53464343F0
:1039B0008146291C40469B46FCF73CFE029A0904BE
:1039C000130C19438B4506D94B46C919013B8F424D
:1039D00000D8ABE099465A468A1A101C291C934617
:1039E000FCF7E4FD53464343291C804658469A465B
:1039F000FCF720FE029A090415042D0C29438A4580
:103A000006D94346C919013B8F4200D886E0984643
:103A10005746CF1BBA464946019F08044246104309
:103A20003D042D0C03043F0C1B0C020C291C5943B4
:103A300055437B437A43EB180F0CDB198C469D42B0
:103A400002D980277F02D2191D0C521992455FD3EB
:103A500056D000271EE720231B1A311C2F1CD940EB
:103A6000DF4085400B1C84402B4386400193B346C6
:103A70002304260C1B0C381C311C9846FCF796FDC1
:103A800042464243051C311C381C9146FCF7D2FDCE
:103A9000019F09043B0C1943894507D909196B1E7D
:103AA0008C424DD889454BD9023D09194A468A1A9C
:103AB000101C311C9246FCF779FD43464343071C1A
:103AC000311C50469946FCF7B5FD019A09041304D0
:103AD0001B0C1943894507D909197B1E8C422DD827
:103AE00089452BD9023F09194B46CB1A2D0499461B
:103AF0002F43FDE61E1CCAE61F1CAAE6994633E7C3
:103B000061460A041B04120C9B18A6409E42A0D2D8
:103B100001380027BEE600270120BBE68A4500D811
:103B200075E702235B429844C91971E78B4500D8B9
:103B300050E702235B429944C9194CE71F1CD3E7A5
:103B40001D1CB3E7023D0019ECE6C04690B587B0F6
:103B500002AFF860B9607A603B6005483968FA687E
:103B6000BB687C68009400F02BF800BEFDE7C046FF
:103B70009C19010080B584B000AFF860B9603B606B
:103B8000FB1D1A70FB1D1B78002B06D109490A4A40
:103B90000A4B081C6921FFF7D9FFF868FB1D19784B
:103BA000BA683B6800F03CF9031C181CBD4604B021
:103BB00080BDC046DC190100B0250100001A0100DB
:103BC0000FB480B5A4B000AF00238C22D2191360CB
:103BD00000238822D21913603B1D1A1C8023101C5D
:103BE00000211A1C0DF0C8FA3B1C9C338422D21908
:103BF00013609823DB1918688422D21911683A1DC2
:103C00000E4B00F009FA031C8C22D21913608C228F
:103C1000D21913683A1D101C191C00F025F9031C59
:103C20008822D21913608822D2191368181CBD4645
:103C300024B080BC08BC04B01847C046413C00001A
:103C400080B586B000AFF860B9603B60FB1D1A70AC
:103C500000237B6100237B611DE0BB681B6801338F
:103C60007F2B09D9BB681B68FA68101C191C00F06F
:103C7000FBF8BB6800221A60BB681B68FA68D3189F
:103C8000FA1D12781A70BB681B685A1CBB681A6050
:103C90007B6901337B617A693B689A42DDDBBD4613
:103CA00006B080BD80B582B000AF78600A1CFB1CF6
:103CB0001A70FB1C1B78002B08D07B68DB78DBB20A
:103CC00008221343DAB27B68DA7007E07B68DB789E
:103CD000DBB208229343DAB27B68DA70BD4602B0E9
:103CE00080BDC04680B582B000AF78600A1CFB1C66
:103CF0001A70FB1C1B78002B08D07B68DB78DBB2CA
:103D000004221343DAB27B68DA7007E07B68DB7861
:103D1000DBB204229343DAB27B68DA70BD4602B0AC
:103D200080BDC04680B588B000AFF860B9607A60E9
:103D30003B60FB68002B06D11B491C4A1C4B081C2E
:103D4000F021FFF703FFFB681A791A4B1A71FB6821
:103D50001A68184B1A60174B1B79012B01D0062BE0
:103D60001FD13B1C1433181C04F024FA3B1C1433E1
:103D7000BA681A600F4B19683A1C14327B68081C29
:103D8000111C1A1C04F000F90A4B1B68181C0121B5
:103D9000FFF788FF074B1B68181C0121FFF7A2FFE4
:103DA000C046BD4608B080BD2C1A0100C0250100E8
:103DB000441A010004F1FF1F80B586B000AFF8601F
:103DC000B960FB1D1A7000237B61144B1B79012B1A
:103DD00001D0062B19D1FB1D1B78002B09D00F4BEE
:103DE0001968FA68BB68081C111C1A1C04F022FA36
:103DF0000EE00A4B1968FA68BB68081C111C1A1CF3
:103E000004F036FA031C7B6102E001237B61C046AB
:103E10007B69181CBD4606B080BDC04604F1FF1F7B
:103E200080B586B000AFF8607A603B603B1C0B3316
:103E30000A1C1A70FA683B1C10331A603B1C1033C2
:103E40003A1C0B3212781A71391C10317A683B68AF
:103E5000081C111C1A1C0023FFF764FF0023181C08
:103E6000BD4606B080BDC04680B582B000AF786068
:103E700039607B68002B07D109484023191CFF31AA
:103E8000084A094BFFF762FE7A683B68101C191C50
:103E900000F00CF8031C181CBD4602B080BDC046E3
:103EA000501A0100C8250100681A010080B584B0CD
:103EB00000AF786039603B1C0F3300221A703B68FA
:103EC000002B17D07B68002B14D03B1C0F33012232
:103ED0001A703B1C0F331B78002B0BD07A683B68A1
:103EE000101C191C0122FFF767FF031C002B01D0D7
:103EF00000233B603B68181CBD4604B080BDC04633
:103F000080B58CB000AFF860B9607A603B60002388
:103F1000FB61FB68BB61BB695A1CBA6100221A7065
:103F20007B68002B36D0BB681B68FB62FB6A002BEA
:103F300007D1BB6930221A70FB690133FB61FB6951
:103F400066E023E0F86A3968FCF77EFB031C7B61BE
:103F50007B693A685343FA6AD31ABB62BB6A002B87
:103F600006DABB6A3B623B6A3022D31ABB6202E0CC
:103F7000BB6A3033BB627B69FB62BB695A1CBA61A6
:103F8000BA6AD2B21A70FB690133FB61FB6A002B7B
:103F9000D8D13CE0BB681B687B627B6A002B07D1F1
:103FA000BB6930221A70FB690133FB61FB692FE0AA
:103FB0002AE03B68786A191CFCF7F8FA031C3B619D
:103FC0003B683A6953437A6AD31A3B623B6A092BCE
:103FD00003D83B6A30333B620BE03B1C38331B7821
:103FE000002B01D0412300E061233A6A9B180A3B71
:103FF0003B623B697B62BB695A1CBA613A6AD2B2C6
:104000001A70FB690133FB617B6A002BD1D1FB691C
:10401000181CBD460CB080BD90B59DB002AFF860D5
:10402000B9607A603B6000233B660023FB65002398
:10403000BB613B1C4A3300221A7000233B61FB68C2
:104040007B6698E17B6C252B0CD07B6CDBB27968AE
:104050003A1C18325BB23C68081C111C1A1C012364
:10406000A04785E13B1C4B3301221A7000237B657E
:104070000023BB651CE07B6E01337B667B6E1B7887
:104080005BB27B647B6C2F2B0DDD7B6C392B0ADCE8
:104090007A6D131C9B009B185B001A1C7B6CD31859
:1040A000303B7B6504E07B6E013B7B660123BB6597
:1040B000BB6D002BDFD006233B657B6E01337B6637
:1040C0007B6E1B785BB22E2B25D100233B65002332
:1040D000BB651CE07B6E01337B667B6E1B785BB23D
:1040E0007B647B6C2F2B0DDD7B6C392B0ADC3A6DEE
:1040F000131C9B009B185B001A1C7B6CD318303B75
:104100003B6504E07B6E013B7B660123BB65BB6DB9
:10411000002BDFD002E07B6E013B7B667B6E0133C0
:104120007B667B6E1B785BB27B647B6C642B1BD0E5
:104130007B6C692B18D07B6C662B15D07B6C462B67
:1041400012D07B6C782B0FD07B6C582B0CD07B6CF7
:104150006F2B09D07B6C622B06D07B6C702B03D04D
:104160007B6C752B00D0B0E07B6C642B02D07B6C39
:10417000692B19D1BB681A1DBA601B687B613A1C98
:104180001C323B1C1433391C4B3109780091101C34
:10419000191C01220A23FFF7B3FE031CFB653A1C1E
:1041A0001C32FB6DD3183B667B6C582B02D07B6CAA
:1041B000782B20D17B6C782B03D13B1C4B33002216
:1041C0001A70BB681A1DBA601B683B613A1C1C322E
:1041D0003B1C1033391C4B3109780091101C191C01
:1041E00000221023FFF78CFE031CFB653A1C1C32D7
:1041F000FB6DD3183B667B6C6F2B08D07B6C622BFE
:1042000005D07B6C702B02D07B6C752B3BD1BB68CF
:104210001A1DBA601B683B617B6C6F2B08D002DCF7
:10422000622B0AD018E0702B0CD0752B0FD013E046
:104230003B1C4A3308221A700EE03B1C4A33022210
:104240001A7009E03B1C4A3310221A7004E03B1C30
:104250004A330A221A70C0463B1C4A331B78391C69
:104260001C313A1C1032381C4B3000780090081C6E
:10427000111C0022FFF744FE031CFB653A1C1C3294
:10428000FB6DD3183B66FB6D7A6DD31A79683A1CC7
:1042900018323C68081C111C2022A0473B6E002BE2
:1042A00012D00DE03B6E5A1E3A661B7879683A1CB4
:1042B00018325BB23C68081C111C1A1C0123A04771
:1042C0003B6E1B78002BEDD152E07B6C632B13D13E
:1042D000BB681A1DBA601B68DBB25BB23B643B6C07
:1042E000DBB279683A1C18325BB23C68081C111CBE
:1042F0001A1C0123A0473BE07B6C732B2CD1BB68BD
:104300001A1DBA601B68FB64FB6C002B30D0FB6C81
:10431000181C0CF05BFF031CFB65FB6D7A6DD31A58
:1043200079683A1C18323C68081C111C2022A047EE
:104330000DE0FB6C5A1CFA641B7879683A1C183241
:104340005BB23C68081C111C1A1C0123A047FB6CC3
:104350001B78002BEDD10BE07B6CDBB279683A1C4B
:1043600018325BB23C68081C111C1A1C0123A047C0
:104370007B6E01337B667B6E1B785BB27B647B6CF0
:10438000002B00D05EE6BB69181CBD461BB090BD7B
:1043900080B500AF04F066F804F03AF803F0F4FFDB
:1043A000124B181CFFF70CFC114B181CFFF708FCF4
:1043B000104B181CFFF704FC05F056F804F0BEFF84
:1043C0000AF054FB04F07EF805F09AF90AF09EFA20
:1043D00004F0CCFF0AF060FB05F060FB00F088FE03
:1043E000C046054B181CFFF7EBFBF9E7801A0100EC
:1043F000841A01009C1A0100B01A010080B500AFB8
:10440000024B181CFFF7DCFBC046FDE7C41A010095
:1044100080B582B000AF78607B681A1C08327B6878
:104420005A607B68012252429A607B681A1C0832EB
:104430007B68DA607B681A1C08327B681A617B68CB
:1044400000221A60BD4602B080BDC04680B582B071
:1044500000AF78607B6800221A61BD4602B080BD63
:1044600080B584B000AF786039607B685B68FB60C2
:104470003B68FA685A60FB689A683B689A60FB6818
:104480009B683A685A60FB683A689A603B687A6849
:104490001A617B681B685A1C7B681A60BD4604B0B1
:1044A00080BDC04680B584B000AF786039603B689D
:1044B0001B68BB60BB68013303D17B681B69FB6071
:1044C0000CE07B680833FB6002E0FB685B68FB6024
:1044D000FB685B681A68BB689A42F6D9FB685A6841
:1044E0003B685A603B685B683A689A603B68FA6868
:1044F0009A60FB683A685A603B687A681A617B6820
:104500001B685A1C7B681A60BD4604B080BDC0465B
:1045100080B584B000AF78607B681B69FB607B6806
:104520005B687A6892689A607B689B687A68526870
:104530005A60FB685A687B689A4203D17B689A6824
:10454000FB685A607B6800221A61FB681B685A1E70
:10455000FB681A60FB681B68181CBD4604B080BD70
:1045600080B584B000AF786039607B68FB60FB6821
:10457000002B01D172B6FEE701F0BAFFFB681A68A2
:10458000FB68D96BFB681B6C4B43D218FB685A6005
:10459000FB6800229A63FB681A68FB689A60FB68F4
:1045A0001A68FB68DB6B591EFB681B6C4B43D21807
:1045B000FB68DA60FA684423FF21D154FA68452386
:1045C000FF21D1543B68002B0ED1FB681B69002BE7
:1045D00014D0FB681033181C00F0A6FF031C002B3E
:1045E0000CD001F077FF09E0FB681033181CFFF7CF
:1045F0000FFFFB682433181CFFF70AFF01F088FF48
:104600000123181CBD4604B080BDC04690B58BB0D8
:1046100002AFF860B960FB1D1A70FB68002B01D176
:1046200072B6FEE7BB68002B02D10023FB6103E0FA
:10463000FB68BA685343FB61FB695033181C01F0F7
:1046400027FD031CBB61BB69002B0BD0BB6950333A
:104650007B61F868B9687A69FB1D1B78BC690094B6
:1046600000F006F8BB69181CBD4609B090BDC046F5
:1046700080B584B000AFF860B9607A601A1CFB1C8A
:104680001A70BB68002B03D1BB69BA691A6002E0DB
:10469000BB697A681A60BB69FA68DA63BB69BA6891
:1046A0001A64BB69181C0121FFF75AFFBA69F91C8B
:1046B0004C230978D154BD4604B080BD80B58AB082
:1046C00000AFF860B9607A603B6000237B62FB68F2
:1046D0003B623B6A002B01D172B6FEE7BB68002B40
:1046E00003D13B6A1B6C002B01D1012300E00023A6
:1046F000002B01D172B6FEE73B68022B03D13B6A67
:10470000DB6B012B01D1012300E00023002B01D141
:1047100072B6FEE701F094F8031C002B02D17B680F
:10472000002B01D1012300E00023002B01D172B640
:10473000FEE701F0DDFE3B6A9A6B3B6ADB6B9A4257
:1047400002D33B68022B21D1396ABA683B68081C46
:10475000111C1A1C00F0E6F9031CFB613B6A5B6A42
:10476000002B0AD03B6A2433181C00F0DDFE031C2A
:10477000002B07D001F0AEFE04E0FB69002B01D056
:1047800001F0A8FE01F0C4FE012363E07B68002B6A
:1047900003D101F0BDFE00235CE07B6A002B06D153
:1047A0003B1C1433181C00F01BFF01237B6201F03B
:1047B000AFFE00F0DBFC01F09BFE3A6A4423D35CC1
:1047C000DBB25BB2013303D13A6A44230021D154F6
:1047D0003A6A4523D35CDBB25BB2013303D13A6A58
:1047E00045230021D15401F093FE3A1C14323B1DA5
:1047F000101C191C00F00CFF031C002B21D13B6A7C
:10480000181C00F09DFA031C002B13D03B6A1A1CE5
:1048100010327B68101C191C00F046FE3B6A181C05
:1048200000F018FA00F0AEFC031C002B11D101F0CF
:1048300051FE0EE03B6A181C00F00CFA00F0A2FCDE
:1048400077E73B6A181C00F005FA00F09BFC002398
:1048500000E06EE7181CBD460AB080BD80B588B088
:1048600000AFF860B9607A603B60FB68BB61BB6910
:10487000002B01D172B6FEE7BB68002B03D1BB69E8
:104880001B6C002B01D1012300E00023002B01D180
:1048900072B6FEE73B68022B03D1BB69DB6B012BD1
:1048A00001D1012300E00023002B01D172B6FEE705
:1048B00001F044FE031C7B61BB699A6BBB69DB6B37
:1048C0009A4202D33B68022B32D13B1C1333B969A5
:1048D00045228A5C1A70B969BA683B68081C111CC9
:1048E0001A1C00F01FF93B1C13331B785BB2013319
:1048F00012D1BB695B6A002B17D0BB692433181C2B
:1049000000F012FE031C002B0FD07B68002B0CD094
:104910007B6801221A6008E03B1C13331B780133CB
:10492000DBB2D9B2BA694523D1540123FB6101E05E
:104930000023FB617B69181C01F006FEFB69181C53
:10494000BD4608B080BDC04680B58AB000AFF860F3
:10495000B9607A603B6000237B62FB683B623B6A24
:10496000002B01D172B6FEE7BB68002B03D13B6A76
:104970001B6C002B01D1012300E00023002B01D18F
:1049800072B6FEE700F05CFF031C002B02D17B68CF
:10499000002B01D1012300E00023002B01D172B6CE
:1049A000FEE701F0A5FD3B6A9B6BFB61FB69002BF9
:1049B0003CD03B6ADB68BB613A6ABB68101C191CBF
:1049C00000F020F93B68002B1BD1FB695A1E3B6AA3
:1049D0009A633B6A1B68002B04D101F007F8021CA4
:1049E0003B6A5A603B6A1B69002B1BD03B6A103341
:1049F000181C00F099FD031C002B13D001F06AFD78
:104A000010E03B6ABA69DA603B6A5B6A002B09D046
:104A10003B6A2433181C00F087FD031C002B01D0D7
:104A200001F058FD01F074FD012377E07B68002B55
:104A300003D101F06DFD002370E07B6A002B06D1ED
:104A40003B1C1033181C00F0CBFD01237B6201F0EE
:104A50005FFD00F08BFB01F04BFD3A6A4423D35C11
:104A6000DBB25BB2013303D13A6A44230021D15453
:104A70003A6A4523D35CDBB25BB2013303D13A6AB5
:104A800045230021D15401F043FD3A1C10323B1D57
:104A9000101C191C00F0BCFD031C002B2ED13B6A1E
:104AA000181C00F037F9031C002B20D03B6A1B6850
:104AB000002B08D101F01CFD3B6A5B68181C00F05C
:104AC000DBFE01F025FD3B6A1A1C24327B68101CBA
:104AD000191C00F0E9FC3B6A181C00F0BBF800F060
:104AE00051FB031C002B18D101F0F4FC15E03B6ACC
:104AF000181C00F0AFF800F045FB52E73B6A181CA9
:104B000000F0A8F800F03EFB3B6A181C00F002F928
:104B1000031C002B01D0002300E042E7181CBD4617
:104B20000AB080BD80B586B000AFF860B9607A6029
:104B300000237B61FB689B6B3B61FB681B6C002B5C
:104B40000ED1FB681B68002B52D1FB685B68181CF8
:104B500000F0F0FE031C7B61FB6800225A6047E016
:104B60007B68002B1BD1FB689968FB681B6CBA68DB
:104B7000081C111C1A1C0CF0DDFAFB689A68FB6813
:104B80001B6CD218FB689A60FB689A68FB685B68CC
:104B90009A422DD3FB681A68FB689A6028E0FB688C
:104BA000D968FB681B6CBA68081C111C1A1C0CF035
:104BB000C1FAFB68DA68FB681B6C5B42D218FB68C1
:104BC000DA60FB68DA68FB681B689A4207D2FB6808
:104BD0005A68FB681B6C5B42D218FB68DA607B6822
:104BE000022B05D13B69002B02D03B69013B3B61A5
:104BF0003B695A1CFB689A637B69181CBD4606B06A
:104C000080BDC04680B582B000AF786039607B68F7
:104C10001B6C002B1AD07B68DA687B681B6CD2187F
:104C20007B68DA607B68DA687B685B689A4203D3EA
:104C30007B681A687B68DA607B68DA687B681B6C63
:104C40003968081C111C1A1C0CF074FABD4602B01D
:104C500080BDC04680B584B000AF786001F048FCEC
:104C60003B1C0F33796845228A5C1A7016E07B681A
:104C70005B6A002B0AD07B682433181C00F054FCBC
:104C8000031C002B03D000F011FD00E00CE03B1CE6
:104C90000F333A1C0F321278013A1A703B1C0F3353
:104CA0001B785BB2002BE2DC7A684523FF21D154EC
:104CB00001F02EFC01F01CFC3B1C0E3379684422F1
:104CC0008A5C1A7016E07B681B69002B11D07B6828
:104CD0001033181C00F028FC031C002B01D000F03E
:104CE000E5FC3B1C0E333A1C0E321278013A1A7066
:104CF00000E005E03B1C0E331B785BB2002BE2DCCE
:104D00007A684423FF21D15401F002FCBD4604B06F
:104D100080BDC04680B584B000AF786001F0E8FB8C
:104D20007B689B6B002B02D10123FB6001E0002319
:104D3000FB6001F0EDFBFB68181CBD4604B080BDB4
:104D400080B584B000AF786001F0D2FB7B689A6BCD
:104D50007B68DB6B9A4202D10123FB6001E00023F8
:104D6000FB6001F0D5FBFB68181CBD4604B080BD9C
:104D700080B584B000AF786039600023FB6014E038
:104D80000D4BFA68D200D358002B0BD10A4BFA68AE
:104D9000D2003968D150084AFB68DB00D3187A6822
:104DA0005A6005E0FB680133FB60FB68072BE7D91D
:104DB000BD4604B080BDC046101D002080B586B041
:104DC00000AFF860B9607A60FB687B6101F090FB2E
:104DD0007A694423D35CDBB25BB2013303D17A69D5
:104DE00044230021D1547A694523D35CDBB25BB202
:104DF000013303D17A6945230021D15401F088FBA6
:104E00007B699B6B002B09D17B69191C2431BA6823
:104E10007B68081C111C1A1C00F062FB7B69181CC3
:104E2000FFF718FFBD4606B080BDC04690B58DB0F7
:104E300004AFF860B9603B60BB1D1A80BB1D1B88C6
:104E40009B00181C01F024F9031C7B617B69002B7B
:104E500010D0742001F01CF9031CFB61FB69002BCE
:104E600003D0FB697A691A6306E07B69181C01F0BC
:104E7000B5F901E00023FB61FB69002B15D0BB1DD8
:104E80001A88F868B9683B683C6B00947C6B0194A5
:104E9000FC6902940024039400F010F8FB69181CCC
:104EA00000F09CF80123BB6102E001235B42BB617F
:104EB000BB69181CBD4609B090BDC04680B586B020
:104EC00000AFF860B9607A603B60BB6A1A6B7B68C0
:104ED0009B00101CA5211A1C0CF04EF9BB6A1A6B22
:104EE0007B683D495B189B00D3183B613B690722F7
:104EF00093433B613A690723134001D072B6FEE742
:104F000000237B6113E0BA687B69D3181A78B86A0A
:104F1000302379694118CB181A71BA687B69D318A4
:104F20001B78002B00D105E07B6901337B617B6935
:104F3000132BE8D9BA6A47230021D1543B6A042BCA
:104F400001D904233B62BB6A3A6ADA62BB6A3A6AF5
:104F50001A65BB6A00225A65BB6A0433181CFFF746
:104F600075FABB6A1833181CFFF770FABB6ABA6A85
:104F70001A613B6A0522D21ABB6A9A61BB6ABA6A95
:104F80005A6200237B6108E0BB6A7A69163292009C
:104F90000021D1507B6901337B617B69042BF3D9FC
:104FA000BB6A0022DA66BA6A70230021D1543969DB
:104FB000FA683B68081C111C1A1C01F009FA021C53
:104FC000BB6A1A607B6A002B02D07B6ABA6A1A60DD
:104FD000BD4606B080BDC046FFFFFF3F80B582B032
:104FE00000AF786001F084FA294B1B685A1C284BEB
:104FF0001A60284B1B68002B09D1264B7A681A606F
:10500000234B1B68012B10D100F06AFB0DE0224BF3
:105010001B68002B09D11F4B1B68DA6A7B68DB6AAF
:105020009A4202D81B4B7A681A601C4B1B685A1CA8
:105030001A4B1A60194B1A687B689A647B68DA6AA3
:10504000174B1B689A4203D97B68DA6A144B1A60C3
:105050007B68DA6A131C9B009B189B00114A9A1804
:105060007B680433101C191CFFF7FAF901F050FAA1
:10507000094B1B68002B08D0064B1B68DA6A7B685B
:10508000DB6A9A4201D201F025FABD4602B080BD2A
:10509000E4F1FF1F0CF1FF1FF0F1FF1F00F2FF1FF3
:1050A000ECF1FF1F10F1FF1F80B584B000AF7860F6
:1050B0000023FB607B68002B10D00C4B1B68002B7F
:1050C00001D072B6FEE700F051F87B68181C002191
:1050D00000F09EFC00F056F8031CFB60FB68002B00
:1050E00001D101F0F7F9BD4604B080BD0CF2FF1FFD
:1050F00080B584B002AF174A174B002100911749C1
:105100000191101C191C5A220023FFF78FFE031C6B
:105110007B607B68012B03D100F0CEFC031C7B601D
:105120007B68012B0DD172B60D4B012252421A60E1
:105130000C4B01221A600C4B00221A6001F0A8F9F6
:1051400004E07B68013301D172B6FEE7BD4602B0D0
:1051500080BDC046C1560000E01A010008F2FF1FE2
:1051600004F2FF1FF0F1FF1FE8F1FF1F80B500AF51
:10517000034B1B685A1C024B1A60BD4680BDC046DB
:105180000CF2FF1F80B584B000AF0023FB6000234A
:10519000BB603A4B1B68002B01D172B6FEE701F0F1
:1051A000A7F9364B1B685A1E344B1A60334B1B68E9
:1051B000002B5CD1324B1B68002B58D02FE0314BB9
:1051C000DB68DB68FB60FB681833181CFFF7A0F98D
:1051D000FB680433181CFFF79BF9FB68DA6A2A4B5B
:1051E0001B689A4203D9FB68DA6A274B1A60FB688E
:1051F000DA6A131C9B009B189B00244A9A18FB68D0
:105200000433101C191CFFF72BF9FB68DA6A204BDA
:105210001B68DB6A9A4202D31E4B01221A60194BAB
:105220001B68002BCBD1FB68002B01D000F0E6FA05
:10523000194B1B687B607B68002B10D000F03CF89A
:10524000031C002B02D0134B01221A607B68013B28
:105250007B607B68002BF1D10F4B00221A600D4B55
:105260001B68002B03D00123BB6001F033F901F070
:105270004FF9BB68181CBD4604B080BD0CF2FF1F7F
:10528000E4F1FF1FA4F1FF1FECF1FF1F10F1FF1F5E
:105290000CF1FF1FF8F1FF1FF4F1FF1F80B582B082
:1052A00000AF044B1B687B607B68181CBD4602B0D6
:1052B00080BDC046E8F1FF1F80B586B000AF002377
:1052C0007B61464B1B68002B00D076E0444B1B688B
:1052D00001333B61424B3A691A603B69002B17D19D
:1052E000404B1B681B68002B01D072B6FEE73D4B9C
:1052F0001B68FB603C4B1A683A4B1A603A4BFA68E1
:105300001A603A4B1B685A1C384B1A6000F076FA48
:10531000374B1B683A699A424ED3324B1B681B6865
:10532000002B01D1012300E00023002B04D0304BDF
:10533000012252421A603FE02A4B1B68DB68DB689F
:10534000BB60BB685B687B603A697B689A4203D24A
:10535000274B7A681A602FE0BB680433181CFFF7EC
:10536000D7F8BB689B6A002B04D0BB681833181CA5
:10537000FFF7CEF8BB68DA6A1E4B1B689A4203D966
:10538000BB68DA6A1B4B1A60BB68DA6A131C9B00A5
:105390009B189B00184A9A18BB680433101C191CF0
:1053A000FFF75EF8BB68DA6A144B1B68DB6A9A4247
:1053B00001D301237B61B0E704E0114B1B685A1C49
:1053C0000F4B1A600F4B1B68002B01D001237B6130
:1053D0007B69181CBD4606B080BDC0460CF2FF1F9D
:1053E000E8F1FF1F9CF1FF1FA0F1FF1FFCF1FF1F61
:1053F00004F2FF1FECF1FF1F10F1FF1F0CF1FF1F64
:10540000F4F1FF1FF8F1FF1F80B582B000AF214B10
:105410001B68002B03D0204B01221A6037E01E4B83
:1054200000221A601D4B1B687B6007E07B68002B25
:1054300001D172B6FEE77B68013B7B6018497A6850
:10544000131C9B009B189B005B58002BEED07A68C6
:10545000131C9B009B189B00114A9B183B603B68E8
:105460005B685A683B685A603B685A683B68083317
:105470009A4204D13B685B685A683B685A603B6853
:105480005B68DA68074B1A60044B7A681A60BD469D
:1054900002B080BD0CF2FF1FF8F1FF1FECF1FF1FFF
:1054A00010F1FF1F0CF1FF1F80B582B000AF7860D4
:1054B00039607B68002B01D172B6FEE7074B1B6891
:1054C00018337A68101C191CFEF7ECFF3B68181C97
:1054D000012100F09DFABD4602B080BD0CF1FF1F16
:1054E00080B584B000AFF860B9607A60FB68002BCB
:1054F00001D172B6FEE70B4B1B681833FA68101C1B
:10550000191CFEF7ADFF7B68002B02D001235B4224
:10551000BB60BA687B68101C191C00F079FABD46A4
:1055200004B080BD0CF1FF1F80B584B000AF78607F
:105530007B68DB68DB68BB60BB68002B01D172B69F
:10554000FEE7BB681833181CFEF7E2FF1E4B1B6812
:10555000002B1DD1BB680433181CFEF7D9FFBB68B4
:10556000DA6A1A4B1B689A4203D9BB68DA6A174B8E
:105570001A60BB68DA6A131C9B009B189B00144AD4
:105580009A18BB680433101C191CFEF769FF06E06B
:10559000BB6818330F4A101C191CFEF761FFBB686B
:1055A000DA6A0D4B1B68DB6A9A4205D90123FB605E
:1055B0000A4B01221A6001E00023FB60FB68181C03
:1055C000BD4604B080BDC0460CF2FF1FECF1FF1FCA
:1055D00010F1FF1FA4F1FF1F0CF1FF1FF8F1FF1FD7
:1055E00080B582B000AF78607B68002B01D172B6C5
:1055F000FEE7054B1A687B681A60044B1A687B68E3
:105600005A60BD4602B080BDFCF1FF1FE8F1FF1FEC
:1056100080B584B000AF786039607B68002B01D121
:1056200072B6FEE73B68002B01D172B6FEE700F0D0
:105630005FFF1C4B1B68BB603B681B68013302D1DA
:105640000023FB6027E07B681A68174B1B689A42AF
:1056500007D07B685A68BB689A4202D80123FB6076
:1056600019E07B685B68BA68D21A3B681B689A428B
:105670000FD23B681A687B685968BB68CB1AD2188E
:105680003B681A607B68181CFFF7AAFF0023FB60C9
:1056900001E00123FB6000F03BFFFB68181CBD46E6
:1056A00004B080BDE8F1FF1FFCF1FF1F80B500AF23
:1056B000024B01221A60BD4680BDC046F8F1FF1FB3
:1056C00080B582B000AF786000F04EF8034B1B68E5
:1056D000012B01D900F0FEFEF6E7C04610F1FF1FD6
:1056E00080B582B000AF00237B600CE07A68131CA9
:1056F0009B009B189B00144A9B18181CFEF788FE01
:105700007B6801337B607B68042BEFD90F4B181C3F
:10571000FEF77EFE0E4B181CFEF77AFE0D4B181C92
:10572000FEF776FE0C4B181CFEF772FE0B4B181C96
:10573000FEF76EFE0A4B054A1A600A4B044A1A60CD
:10574000BD4602B080BDC04610F1FF1F74F1FF1FBF
:1057500088F1FF1FA4F1FF1FB8F1FF1FD0F1FF1F59
:105760009CF1FF1FA0F1FF1F80B582B000AF27E0C2
:10577000FFF7FCFC164B1B685A425341DBB27B60BF
:10578000FFF700FD7B68002B1AD100F0B1FE104B33
:10579000DB68DB683B603B680433181CFEF7B8FE2F
:1057A0000C4B1B685A1E0B4B1A600B4B1B685A1E86
:1057B000094B1A6000F0ACFE3B68181C00F00EF8B4
:1057C000054B1B68002BD3D1BD4602B080BDC0463F
:1057D000B8F1FF1FE4F1FF1FCCF1FF1F80B582B0CD
:1057E00000AF78607B681B6B181C00F0F7FC7B68CF
:1057F000181C00F0F3FCBD4602B080BD80B582B03D
:1058000000AF0D4B1B681B68002B01D1012300E08A
:105810000023002B04D0094B012252421A6008E0F9
:10582000054B1B68DB68DB687B607B685A68034B51
:105830001A60BD4602B080BD9CF1FF1F04F2FF1F3D
:1058400080B582B000AF0A4B1B68002B02D1012348
:105850007B6008E0074B1B68002B02D102237B60B2
:1058600001E000237B607B68181CBD4602B080BD50
:10587000F0F1FF1F0CF2FF1F80B584B000AF78601D
:105880007B68FB607B68002B4AD0FB68DA6A264B9A
:105890001B68DB6A9A4243D2FB689B69002B06DBDC
:1058A000214B1B68DB6A0522D21AFB689A61FB68F0
:1058B0005969FB68DA6A131C9B009B189B001B4A02
:1058C0009B18994201D1012300E00023002B22D034
:1058D000FB680433181CFEF71BFE134B1B68DA6AC7
:1058E000FB68DA62FB68DA6A114B1B689A4203D9DB
:1058F000FB68DA6A0E4B1A60FB68DA6A131C9B00BD
:105900009B189B00094A9A18FB680433101C191C49
:10591000FEF7A6FD04E0044B1B68DA6AFB68DA6256
:10592000BD4604B080BDC0460CF1FF1F10F1FF1F43
:10593000ECF1FF1F80B584B000AF78607B68BB607E
:105940000023FB607B68002B44D0254B1B68BA68A2
:105950009A4201D072B6FEE7BB685B6D002B01D1A5
:1059600072B6FEE7BB685B6D5A1EBB685A65BB68C2
:10597000DA6ABB681B6D9A422CD0BB685B6D002B4A
:1059800028D1BB680433181CFEF7C2FDBB681A6D32
:10599000BB68DA62BB68DB6A0522D21ABB689A610F
:1059A000BB68DA6A0F4B1B689A4203D9BB68DA6A94
:1059B0000C4B1A60BB68DA6A131C9B009B189B0097
:1059C000094A9A18BB680433101C191CFEF748FDDD
:1059D0000123FB60FB68181CBD4604B080BDC046B7
:1059E0000CF1FF1FECF1FF1F10F1FF1F80B500AF9E
:1059F000064B1B68002B04D0044B1B685A6D013208
:105A00005A65024B1B68181CBD4680BD0CF1FF1F78
:105A100080B584B000AF78603960214B1B68FB60B3
:105A2000204B1B680433181CFEF772FD7B680133A2
:105A30000BD13B68002B08D01A4B1B6804331A4A61
:105A4000101C191CFEF70CFD26E0FA687B68D318C1
:105A5000BB60144B1B68BA685A60BA68FB689A420C
:105A600009D2124B1A680F4B1B680433101C191C07
:105A7000FEF718FD10E00E4B1A680A4B1B68043342
:105A8000101C191CFEF70EFD0A4B1B68BA689A42DF
:105A900002D2084BBA681A60BD4604B080BDC04649
:105AA000E8F1FF1F0CF1FF1FD0F1FF1FA0F1FF1F56
:105AB0009CF1FF1F04F2FF1F80B584B002AF0023EA
:105AC0007B6000F08FFA0E4B1B68002B0DD00D4A47
:105AD0000D4B042100910D490191101C191CB42299
:105AE0000023FFF7A3F9031C7B607B68002B01D127
:105AF00072B6FEE77B68181CBD4602B080BDC0468A
:105B000040F2FF1F315C0000F81A010044F2FF1F51
:105B100080B58AB000AFF860B9607A603B6000235E
:105B20007B62FB68002B01D172B6FEE7224B1B683B
:105B3000002B3BD03B1C1433BA681A603B1C143357
:105B40007A685A603B1C1433FA689A60BB68052B6C
:105B50001FDCFFF775FE031C022B0DD1164B1968D5
:105B60003A1C14323B6B081C111C1A1C0023FEF754
:105B7000A5FD031C7B6219E00F4B1A683B1C143314
:105B8000101C191C00220023FEF798FD031C7B62E9
:105B90000CE0094B19683A1C14323B68081C111CB4
:105BA0001A1C0023FEF75AFE031C7B627B6A181C3A
:105BB000BD460AB080BDC04640F2FF1F80B586B02A
:105BC00002AF78603960194B1B68DB68DB68FB60EB
:105BD000FB680433181CFEF79BFCFB68DB69012B98
:105BE0001CD1FB689A697B68D118F8683A687B68B1
:105BF00000F0BAF8031C002B10D0FA687B68002173
:105C00000091101C00211A1C0023FFF781FF031CC8
:105C1000BB60BB68002B01D172B6FEE7FB685B6A14
:105C2000FA68101C9847BD4604B080BD38F2FF1FCB
:105C300080B584B000AF78603B1C0833181C00F0BE
:105C400053F8031CFB60BB68FA68101C191C00F0B9
:105C500003F800F0CBF8EFE780B584B000AF7860D0
:105C60003960FFF783FA3B1C0833181C00F05CF81E
:105C7000031CFB60BB68002B2CD13B68002B0CD1B4
:105C80007A68FB689A4208D8FFF77CFA7A68FB6862
:105C9000101C191CFFF792FF1EE03B68002B06D07A
:105CA0000F4B1B681B685A425341DBB23B600D4BE4
:105CB00019687A68FB68D21A3B68081C111C1A1C08
:105CC000FFF77CF8FFF75EFA031C002B04D100F00D
:105CD00001FC01E0FFF756FABD4604B080BDC046A6
:105CE0003CF2FF1F40F2FF1F80B584B000AF786028
:105CF0000C4B1B681B685A425341DBB21A1C7B6871
:105D00001A607B681B68002B05D1064B1B68DB689B
:105D10001B68FB6001E00023FB60FB68181CBD46AC
:105D200004B080BD38F2FF1F80B584B000AF78604A
:105D3000FFF7B4FA031CFB600A4B1B68FA689A422F
:105D400005D200F0F3F87B6801221A6002E07B685C
:105D500000221A60034BFA681A60FB68181CBD46E3
:105D600004B080BD48F2FF1F80B586B000AFF86078
:105D7000B9607A603B6000237B61FB68BA685A6057
:105D8000FB68FA681A61BA687B689A4212D87A6826
:105D90003B68D21AFB689B699A4202D301237B615C
:105DA0001BE0104B1A68FB680433101C191CFEF72B
:105DB00079FB12E07A683B689A4206D2BA683B687F
:105DC0009A4202D301237B6107E0074B1A68FB6804
:105DD0000433101C191CFEF765FB7B69181CBD46BB
:105DE00006B080BD3CF2FF1F38F2FF1F80B58CB0BB
:105DF00002AF85E03B1C08331B68002B11DA3B1C0B
:105E0000083304337B627B6A002B01D172B6FEE754
:105E10007B6A1A687B6A59687B6A9B68081C191C34
